{
  "transactions": [
    {
      "hash": "0xededa1b5156f0c426fbf5cd8983e51fc7a108ed548aa0d77f877feb2673df9d3",
      "transactionType": "CALL",
      "contractName": null,
      "contractAddress": "0x9e6d2c68921ac11fcd57a8eeb062f7ee31e94378",
      "function": "mint(address,uint256)",
      "arguments": [
        "0x9FbA7D4803669E3d68c6bbC5B58ddC8dB6beed9f",
        "10000"
      ],
      "transaction": {
        "from": "0x9fba7d4803669e3d68c6bbc5b58ddc8db6beed9f",
        "to": "0x9e6d2c68921ac11fcd57a8eeb062f7ee31e94378",
        "gas": "0x17ddd",
        "value": "0x0",
        "input": "0x40c10f190000000000000000000000009fba7d4803669e3d68c6bbc5b58ddc8db6beed9f0000000000000000000000000000000000000000000000000000000000002710",
        "nonce": "0x1",
        "chainId": "0x98a"
      },
      "additionalContracts": [],
      "isFixedGasLimit": false
    }
  ],
  "receipts": [
    {
      "status": "0x1",
      "cumulativeGasUsed": "0x11477",
      "logs": [
        {
          "address": "0x9e6d2c68921ac11fcd57a8eeb062f7ee31e94378",
          "topics": [
            "0xddf252ad1be2c89b69c2b068fc378daa952ba7f163c4a11628f55a4df523b3ef",
            "0x0000000000000000000000000000000000000000000000000000000000000000",
            "0x0000000000000000000000009fba7d4803669e3d68c6bbc5b58ddc8db6beed9f"
          ],
          "data": "0x0000000000000000000000000000000000000000000000000000000000002710",
          "blockHash": "0x9a450da4a0e6b1a4e4630787a34bfda0e52adebf7412b8776648617bb9ce1160",
          "blockNumber": "0x832de5",
          "transactionHash": "0xededa1b5156f0c426fbf5cd8983e51fc7a108ed548aa0d77f877feb2673df9d3",
          "transactionIndex": "0x0",
          "logIndex": "0x0",
          "removed": false
        }
      ],
      "logsBloom": "0x00000000000000000000000000000000000000000000000000000000000000000000000000000000000000000000000000000000000004000000000000000000000000000000000000000008000000000000000000000000000000000000000000000000020000000000010000000800000000000000000000000010000000000000000000000000000000000000000000000000000000000000000000000000000000000000000000000000000000000000000000000000001020000000000000000002000000000000000000000000000000000000000000000000004020000000000000000000000000000000000000000000000000000040000000000000",
      "type": "0x0",
      "transactionHash": "0xededa1b5156f0c426fbf5cd8983e51fc7a108ed548aa0d77f877feb2673df9d3",
      "transactionIndex": "0x0",
      "blockHash": "0x9a450da4a0e6b1a4e4630787a34bfda0e52adebf7412b8776648617bb9ce1160",
      "blockNumber": "0x832de5",
      "gasUsed": "0x11477",
      "effectiveGasPrice": "0x3473bc0",
      "from": "0x9fba7d4803669e3d68c6bbc5b58ddc8db6beed9f",
      "to": "0x9e6d2c68921ac11fcd57a8eeb062f7ee31e94378",
      "contractAddress": null,
      "root": "0x0000000000000000000000000000000000000000000000000000000000000000"
    }
  ],
  "libraries": [],
  "pending": [],
  "returns": {},
  "timestamp": 1732500476,
  "chain": 2442,
  "commit": "6741d54"
}